{
  "contractName": "Vote",
  "abi": [
    {
      "inputs": [
        {
          "internalType": "string[]",
          "name": "proposalNames",
          "type": "string[]"
        }
      ],
      "stateMutability": "nonpayable",
      "type": "constructor"
    },
    {
      "inputs": [],
      "name": "chairperson",
      "outputs": [
        {
          "internalType": "address",
          "name": "",
          "type": "address"
        }
      ],
      "stateMutability": "view",
      "type": "function",
      "constant": true
    },
    {
      "inputs": [
        {
          "internalType": "uint256",
          "name": "",
          "type": "uint256"
        }
      ],
      "name": "delegates",
      "outputs": [
        {
          "internalType": "address",
          "name": "",
          "type": "address"
        }
      ],
      "stateMutability": "view",
      "type": "function",
      "constant": true
    },
    {
      "inputs": [],
      "name": "lock",
      "outputs": [
        {
          "internalType": "bool",
          "name": "",
          "type": "bool"
        }
      ],
      "stateMutability": "view",
      "type": "function",
      "constant": true
    },
    {
      "inputs": [
        {
          "internalType": "uint256",
          "name": "",
          "type": "uint256"
        }
      ],
      "name": "proposals",
      "outputs": [
        {
          "internalType": "string",
          "name": "name",
          "type": "string"
        },
        {
          "internalType": "uint256",
          "name": "voteCount",
          "type": "uint256"
        }
      ],
      "stateMutability": "view",
      "type": "function",
      "constant": true
    },
    {
      "inputs": [
        {
          "internalType": "address",
          "name": "",
          "type": "address"
        }
      ],
      "name": "voters",
      "outputs": [
        {
          "internalType": "uint256",
          "name": "weight",
          "type": "uint256"
        },
        {
          "internalType": "bool",
          "name": "voted",
          "type": "bool"
        },
        {
          "internalType": "uint256",
          "name": "vote",
          "type": "uint256"
        },
        {
          "internalType": "bool",
          "name": "getballot",
          "type": "bool"
        },
        {
          "internalType": "address",
          "name": "delegate",
          "type": "address"
        }
      ],
      "stateMutability": "view",
      "type": "function",
      "constant": true
    },
    {
      "inputs": [
        {
          "internalType": "bool",
          "name": "_lock",
          "type": "bool"
        }
      ],
      "name": "setLock",
      "outputs": [],
      "stateMutability": "nonpayable",
      "type": "function"
    },
    {
      "inputs": [
        {
          "internalType": "address",
          "name": "voter",
          "type": "address"
        }
      ],
      "name": "giveRightToVote",
      "outputs": [],
      "stateMutability": "nonpayable",
      "type": "function"
    },
    {
      "inputs": [
        {
          "internalType": "address",
          "name": "to",
          "type": "address"
        }
      ],
      "name": "delegate",
      "outputs": [],
      "stateMutability": "nonpayable",
      "type": "function"
    },
    {
      "inputs": [
        {
          "internalType": "uint256",
          "name": "proposal",
          "type": "uint256"
        }
      ],
      "name": "vote",
      "outputs": [],
      "stateMutability": "nonpayable",
      "type": "function"
    },
    {
      "inputs": [],
      "name": "winningProposal",
      "outputs": [
        {
          "internalType": "uint256",
          "name": "winningProposal_",
          "type": "uint256"
        }
      ],
      "stateMutability": "view",
      "type": "function",
      "constant": true
    },
    {
      "inputs": [],
      "name": "winnerName",
      "outputs": [
        {
          "internalType": "string",
          "name": "winnerName_",
          "type": "string"
        }
      ],
      "stateMutability": "view",
      "type": "function",
      "constant": true
    }
  ],
  "bytecode": "0x60806040523480156200001157600080fd5b50604051620020f2380380620020f28339818101604052810190620000379190620004f7565b336000806101000a81548173ffffffffffffffffffffffffffffffffffffffff021916908373ffffffffffffffffffffffffffffffffffffffff16021790555060018060008060009054906101000a900473ffffffffffffffffffffffffffffffffffffffff1673ffffffffffffffffffffffffffffffffffffffff1673ffffffffffffffffffffffffffffffffffffffff168152602001908152602001600020600001819055506000600460006101000a81548160ff02191690831515021790555060005b8151811015620001a657600260405180604001604052808484815181106200012a576200012962000548565b5b6020026020010151815260200160008152509080600181540180825580915050600190039060005260206000209060020201600090919091909150600082015181600001908051906020019062000183929190620001ae565b5060208201518160010155505080806200019d90620005b0565b915050620000fd565b505062000661565b828054620001bc906200062c565b90600052602060002090601f016020900481019282620001e057600085556200022c565b82601f10620001fb57805160ff19168380011785556200022c565b828001600101855582156200022c579182015b828111156200022b5782518255916020019190600101906200020e565b5b5090506200023b91906200023f565b5090565b5b808211156200025a57600081600090555060010162000240565b5090565b6000604051905090565b600080fd5b600080fd5b600080fd5b6000601f19601f8301169050919050565b7f4e487b7100000000000000000000000000000000000000000000000000000000600052604160045260246000fd5b620002c28262000277565b810181811067ffffffffffffffff82111715620002e457620002e362000288565b5b80604052505050565b6000620002f96200025e565b9050620003078282620002b7565b919050565b600067ffffffffffffffff8211156200032a576200032962000288565b5b602082029050602081019050919050565b600080fd5b600080fd5b600067ffffffffffffffff82111562000363576200036262000288565b5b6200036e8262000277565b9050602081019050919050565b60005b838110156200039b5780820151818401526020810190506200037e565b83811115620003ab576000848401525b50505050565b6000620003c8620003c28462000345565b620002ed565b905082815260208101848484011115620003e757620003e662000340565b5b620003f48482856200037b565b509392505050565b600082601f83011262000414576200041362000272565b5b815162000426848260208601620003b1565b91505092915050565b60006200044662000440846200030c565b620002ed565b905080838252602082019050602084028301858111156200046c576200046b6200033b565b5b835b81811015620004ba57805167ffffffffffffffff81111562000495576200049462000272565b5b808601620004a48982620003fc565b855260208501945050506020810190506200046e565b5050509392505050565b600082601f830112620004dc57620004db62000272565b5b8151620004ee8482602086016200042f565b91505092915050565b60006020828403121562000510576200050f62000268565b5b600082015167ffffffffffffffff8111156200053157620005306200026d565b5b6200053f84828501620004c4565b91505092915050565b7f4e487b7100000000000000000000000000000000000000000000000000000000600052603260045260246000fd5b7f4e487b7100000000000000000000000000000000000000000000000000000000600052601160045260246000fd5b6000819050919050565b6000620005bd82620005a6565b91507fffffffffffffffffffffffffffffffffffffffffffffffffffffffffffffffff8203620005f257620005f162000577565b5b600182019050919050565b7f4e487b7100000000000000000000000000000000000000000000000000000000600052602260045260246000fd5b600060028204905060018216806200064557607f821691505b6020821081036200065b576200065a620005fd565b5b50919050565b611a8180620006716000396000f3fe608060405234801561001057600080fd5b50600436106100a95760003560e01c8063619d519411610071578063619d5194146101535780639e7b8d611461016f578063a3ec138d1461018b578063b1548afc146101bf578063e2ba53f0146101ef578063f83d08ba1461020d576100a9565b80630121b93f146100ae578063013cf08b146100ca5780632e4176cf146100fb5780635c19a95c14610119578063609ff1bd14610135575b600080fd5b6100c860048036038101906100c39190611155565b61022b565b005b6100e460048036038101906100df9190611155565b6103c7565b6040516100f292919061122a565b60405180910390f35b610103610483565b604051610110919061129b565b60405180910390f35b610133600480360381019061012e91906112e2565b6104a7565b005b61013d610a2b565b60405161014a919061130f565b60405180910390f35b61016d60048036038101906101689190611362565b610b05565b005b610189600480360381019061018491906112e2565b610bb0565b005b6101a560048036038101906101a091906112e2565b610f46565b6040516101b695949392919061139e565b60405180910390f35b6101d960048036038101906101d49190611155565b610fb6565b6040516101e6919061129b565b60405180910390f35b6101f7610ff5565b60405161020491906113f1565b60405180910390f35b610215611107565b6040516102229190611413565b60405180910390f35b60001515600460009054906101000a900460ff16151514610281576040517f08c379a00000000000000000000000000000000000000000000000000000000081526004016102789061147a565b60405180910390fd5b6000600160003373ffffffffffffffffffffffffffffffffffffffff1673ffffffffffffffffffffffffffffffffffffffff16815260200190815260200160002090508060010160009054906101000a900460ff1615610316576040517f08c379a000000000000000000000000000000000000000000000000000000000815260040161030d906114e6565b60405180910390fd5b600081600001540361035d576040517f08c379a000000000000000000000000000000000000000000000000000000000815260040161035490611552565b60405180910390fd5b60018160010160006101000a81548160ff02191690831515021790555081816002018190555080600001546002838154811061039c5761039b611572565b5b906000526020600020906002020160010160008282546103bc91906115d0565b925050819055505050565b600281815481106103d757600080fd5b90600052602060002090600202016000915090508060000180546103fa90611655565b80601f016020809104026020016040519081016040528092919081815260200182805461042690611655565b80156104735780601f1061044857610100808354040283529160200191610473565b820191906000526020600020905b81548152906001019060200180831161045657829003601f168201915b5050505050908060010154905082565b60008054906101000a900473ffffffffffffffffffffffffffffffffffffffff1681565b6000600160003373ffffffffffffffffffffffffffffffffffffffff1673ffffffffffffffffffffffffffffffffffffffff16815260200190815260200160002090508060010160009054906101000a900460ff161561053c576040517f08c379a0000000000000000000000000000000000000000000000000000000008152600401610533906116d2565b60405180910390fd5b3373ffffffffffffffffffffffffffffffffffffffff168273ffffffffffffffffffffffffffffffffffffffff16036105aa576040517f08c379a00000000000000000000000000000000000000000000000000000000081526004016105a19061173e565b60405180910390fd5b5b600073ffffffffffffffffffffffffffffffffffffffff16600160008473ffffffffffffffffffffffffffffffffffffffff1673ffffffffffffffffffffffffffffffffffffffff16815260200190815260200160002060030160019054906101000a900473ffffffffffffffffffffffffffffffffffffffff1673ffffffffffffffffffffffffffffffffffffffff161461077c576003829080600181540180825580915050600190039060005260206000200160009091909190916101000a81548173ffffffffffffffffffffffffffffffffffffffff021916908373ffffffffffffffffffffffffffffffffffffffff160217905550600160008373ffffffffffffffffffffffffffffffffffffffff1673ffffffffffffffffffffffffffffffffffffffff16815260200190815260200160002060030160019054906101000a900473ffffffffffffffffffffffffffffffffffffffff1691503373ffffffffffffffffffffffffffffffffffffffff168273ffffffffffffffffffffffffffffffffffffffff1603610777576040517f08c379a000000000000000000000000000000000000000000000000000000000815260040161076e906117aa565b60405180910390fd5b6105ab565b5b600060038054905011156108ad576000600360016003805490506107a191906117ca565b815481106107b2576107b1611572565b5b9060005260206000200160009054906101000a900473ffffffffffffffffffffffffffffffffffffffff16905060038054806107f1576107f06117fe565b5b6001900381819060005260206000200160006101000a81549073ffffffffffffffffffffffffffffffffffffffff0219169055905582600160008373ffffffffffffffffffffffffffffffffffffffff1673ffffffffffffffffffffffffffffffffffffffff16815260200190815260200160002060030160016101000a81548173ffffffffffffffffffffffffffffffffffffffff021916908373ffffffffffffffffffffffffffffffffffffffff1602179055505061077d565b60018160010160006101000a81548160ff021916908315150217905550818160030160016101000a81548173ffffffffffffffffffffffffffffffffffffffff021916908373ffffffffffffffffffffffffffffffffffffffff1602179055506000600160008473ffffffffffffffffffffffffffffffffffffffff1673ffffffffffffffffffffffffffffffffffffffff16815260200190815260200160002090508060010160009054906101000a900460ff1615610a065760001515600460009054906101000a900460ff161515146109bd576040517f08c379a00000000000000000000000000000000000000000000000000000000081526004016109b49061147a565b60405180910390fd5b816000015460028260020154815481106109da576109d9611572565b5b906000526020600020906002020160010160008282546109fa91906115d0565b92505081905550610a26565b8160000154816000016000828254610a1e91906115d0565b925050819055505b505050565b600060011515600460009054906101000a900460ff16151514610a83576040517f08c379a0000000000000000000000000000000000000000000000000000000008152600401610a7a90611879565b60405180910390fd5b6000805b600280549050811015610b00578160028281548110610aa957610aa8611572565b5b9060005260206000209060020201600101541115610aed5760028181548110610ad557610ad4611572565b5b90600052602060002090600202016001015491508092505b8080610af890611899565b915050610a87565b505090565b60008054906101000a900473ffffffffffffffffffffffffffffffffffffffff1673ffffffffffffffffffffffffffffffffffffffff163373ffffffffffffffffffffffffffffffffffffffff1614610b93576040517f08c379a0000000000000000000000000000000000000000000000000000000008152600401610b8a9061192d565b60405180910390fd5b80600460006101000a81548160ff02191690831515021790555050565b60008054906101000a900473ffffffffffffffffffffffffffffffffffffffff1673ffffffffffffffffffffffffffffffffffffffff163373ffffffffffffffffffffffffffffffffffffffff1614610c3e576040517f08c379a0000000000000000000000000000000000000000000000000000000008152600401610c35906119bf565b60405180910390fd5b600160008273ffffffffffffffffffffffffffffffffffffffff1673ffffffffffffffffffffffffffffffffffffffff16815260200190815260200160002060030160009054906101000a900460ff1615610cce576040517f08c379a0000000000000000000000000000000000000000000000000000000008152600401610cc590611a2b565b60405180910390fd5b60018060008373ffffffffffffffffffffffffffffffffffffffff1673ffffffffffffffffffffffffffffffffffffffff16815260200190815260200160002060030160006101000a81548160ff02191690831515021790555060008190505b600073ffffffffffffffffffffffffffffffffffffffff16600160008373ffffffffffffffffffffffffffffffffffffffff1673ffffffffffffffffffffffffffffffffffffffff16815260200190815260200160002060030160019054906101000a900473ffffffffffffffffffffffffffffffffffffffff1673ffffffffffffffffffffffffffffffffffffffff1614610e2e57600160008273ffffffffffffffffffffffffffffffffffffffff1673ffffffffffffffffffffffffffffffffffffffff16815260200190815260200160002060030160019054906101000a900473ffffffffffffffffffffffffffffffffffffffff169050610d2e565b6000600160008373ffffffffffffffffffffffffffffffffffffffff1673ffffffffffffffffffffffffffffffffffffffff16815260200190815260200160002090508060010160009054906101000a900460ff1615610f245760001515600460009054906101000a900460ff16151514610ede576040517f08c379a0000000000000000000000000000000000000000000000000000000008152600401610ed59061147a565b60405180910390fd5b60016002826002015481548110610ef857610ef7611572565b5b90600052602060002090600202016001016000828254610f1891906115d0565b92505081905550610f41565b6001816000016000828254610f3991906115d0565b925050819055505b505050565b60016020528060005260406000206000915090508060000154908060010160009054906101000a900460ff16908060020154908060030160009054906101000a900460ff16908060030160019054906101000a900473ffffffffffffffffffffffffffffffffffffffff16905085565b60038181548110610fc657600080fd5b906000526020600020016000915054906101000a900473ffffffffffffffffffffffffffffffffffffffff1681565b606060011515600460009054906101000a900460ff1615151461104d576040517f08c379a000000000000000000000000000000000000000000000000000000000815260040161104490611879565b60405180910390fd5b6002611057610a2b565b8154811061106857611067611572565b5b9060005260206000209060020201600001805461108490611655565b80601f01602080910402602001604051908101604052809291908181526020018280546110b090611655565b80156110fd5780601f106110d2576101008083540402835291602001916110fd565b820191906000526020600020905b8154815290600101906020018083116110e057829003601f168201915b5050505050905090565b600460009054906101000a900460ff1681565b600080fd5b6000819050919050565b6111328161111f565b811461113d57600080fd5b50565b60008135905061114f81611129565b92915050565b60006020828403121561116b5761116a61111a565b5b600061117984828501611140565b91505092915050565b600081519050919050565b600082825260208201905092915050565b60005b838110156111bc5780820151818401526020810190506111a1565b838111156111cb576000848401525b50505050565b6000601f19601f8301169050919050565b60006111ed82611182565b6111f7818561118d565b935061120781856020860161119e565b611210816111d1565b840191505092915050565b6112248161111f565b82525050565b6000604082019050818103600083015261124481856111e2565b9050611253602083018461121b565b9392505050565b600073ffffffffffffffffffffffffffffffffffffffff82169050919050565b60006112858261125a565b9050919050565b6112958161127a565b82525050565b60006020820190506112b0600083018461128c565b92915050565b6112bf8161127a565b81146112ca57600080fd5b50565b6000813590506112dc816112b6565b92915050565b6000602082840312156112f8576112f761111a565b5b6000611306848285016112cd565b91505092915050565b6000602082019050611324600083018461121b565b92915050565b60008115159050919050565b61133f8161132a565b811461134a57600080fd5b50565b60008135905061135c81611336565b92915050565b6000602082840312156113785761137761111a565b5b60006113868482850161134d565b91505092915050565b6113988161132a565b82525050565b600060a0820190506113b3600083018861121b565b6113c0602083018761138f565b6113cd604083018661121b565b6113da606083018561138f565b6113e7608083018461128c565b9695505050505050565b6000602082019050818103600083015261140b81846111e2565b905092915050565b6000602082019050611428600083018461138f565b92915050565b7f566f7465206973206c6f636b65642e0000000000000000000000000000000000600082015250565b6000611464600f8361118d565b915061146f8261142e565b602082019050919050565b6000602082019050818103600083015261149381611457565b9050919050565b7f416c726561647920766f746564206f722064656c6567617465642e0000000000600082015250565b60006114d0601b8361118d565b91506114db8261149a565b602082019050919050565b600060208201905081810360008301526114ff816114c3565b9050919050565b7f486173206e6f20726967687420746f20766f74652e0000000000000000000000600082015250565b600061153c60158361118d565b915061154782611506565b602082019050919050565b6000602082019050818103600083015261156b8161152f565b9050919050565b7f4e487b7100000000000000000000000000000000000000000000000000000000600052603260045260246000fd5b7f4e487b7100000000000000000000000000000000000000000000000000000000600052601160045260246000fd5b60006115db8261111f565b91506115e68361111f565b9250827fffffffffffffffffffffffffffffffffffffffffffffffffffffffffffffffff0382111561161b5761161a6115a1565b5b828201905092915050565b7f4e487b7100000000000000000000000000000000000000000000000000000000600052602260045260246000fd5b6000600282049050600182168061166d57607f821691505b6020821081036116805761167f611626565b5b50919050565b7f596f7520616c726561647920766f746564206f722064656c6567617465642e00600082015250565b60006116bc601f8361118d565b91506116c782611686565b602082019050919050565b600060208201905081810360008301526116eb816116af565b9050919050565b7f53656c662d64656c65676174696f6e20697320646973616c6c6f7765642e0000600082015250565b6000611728601e8361118d565b9150611733826116f2565b602082019050919050565b600060208201905081810360008301526117578161171b565b9050919050565b7f466f756e64206c6f6f7020696e2064656c65676174696f6e2e00000000000000600082015250565b600061179460198361118d565b915061179f8261175e565b602082019050919050565b600060208201905081810360008301526117c381611787565b9050919050565b60006117d58261111f565b91506117e08361111f565b9250828210156117f3576117f26115a1565b5b828203905092915050565b7f4e487b7100000000000000000000000000000000000000000000000000000000600052603160045260246000fd5b7f566f7465206973206e6f74206c6f636b65642e00000000000000000000000000600082015250565b600061186360138361118d565b915061186e8261182d565b602082019050919050565b6000602082019050818103600083015261189281611856565b9050919050565b60006118a48261111f565b91507fffffffffffffffffffffffffffffffffffffffffffffffffffffffffffffffff82036118d6576118d56115a1565b5b600182019050919050565b7f4f6e6c79206368616972706572736f6e2063616e20736574206c6f636b2e0000600082015250565b6000611917601e8361118d565b9150611922826118e1565b602082019050919050565b600060208201905081810360008301526119468161190a565b9050919050565b7f4f6e6c79206368616972706572736f6e2063616e20676976652072696768742060008201527f746f20766f74652e000000000000000000000000000000000000000000000000602082015250565b60006119a960288361118d565b91506119b48261194d565b604082019050919050565b600060208201905081810360008301526119d88161199c565b9050919050565b7f54686520766f74657220616c726561647920676f742062616c6c6f742e000000600082015250565b6000611a15601d8361118d565b9150611a20826119df565b602082019050919050565b60006020820190508181036000830152611a4481611a08565b905091905056fea2646970667358221220eeb4907375b07a2e85104aa631c27e0c0529adb8756010838b833cb4c3384a9064736f6c634300080d0033",
  "immutableReferences": {},
  "source": "// SPDX-License-Identifier: MIT\r\npragma solidity >=0.5.0;\r\n\r\ncontract Vote {\r\n    struct Voter {\r\n        uint256 weight;\r\n        bool voted;\r\n        uint256 vote;\r\n        bool getballot;\r\n        address delegate;\r\n    }\r\n\r\n    struct Proposal {\r\n        string name;\r\n        uint256 voteCount;\r\n    }\r\n\r\n    address public chairperson;\r\n    mapping(address => Voter) public voters;\r\n    Proposal[] public proposals;\r\n    address[] public delegates;\r\n    bool public lock;\r\n\r\n    constructor(string[] memory proposalNames) {\r\n        chairperson = msg.sender;\r\n        voters[chairperson].weight = 1;\r\n        lock = false;\r\n        for (uint256 i = 0; i < proposalNames.length; i++) {\r\n            proposals.push(Proposal({name: proposalNames[i], voteCount: 0}));\r\n        }\r\n    }\r\n\r\n    function setLock(bool _lock) external {\r\n        require(msg.sender == chairperson, \"Only chairperson can set lock.\");\r\n        lock = _lock;\r\n    }\r\n\r\n    function giveRightToVote(address voter) external {\r\n        require(\r\n            msg.sender == chairperson,\r\n            \"Only chairperson can give right to vote.\"\r\n        );\r\n\r\n        require(!voters[voter].getballot, \"The voter already got ballot.\");\r\n        voters[voter].getballot = true;\r\n\r\n        address to = voter;\r\n        while (voters[to].delegate != address(0)) to = voters[to].delegate;\r\n\r\n        Voter storage delegated = voters[to];\r\n        if (delegated.voted) {\r\n            require(lock == false, \"Vote is locked.\");\r\n            proposals[delegated.vote].voteCount += 1;\r\n        } else delegated.weight += 1;\r\n    }\r\n\r\n    function delegate(address to) external {\r\n        Voter storage sender = voters[msg.sender];\r\n        require(!sender.voted, \"You already voted or delegated.\");\r\n        require(to != msg.sender, \"Self-delegation is disallowed.\");\r\n\r\n\r\n        while (voters[to].delegate != address(0)) {\r\n            delegates.push(to);\r\n            to = voters[to].delegate;\r\n            require(to != msg.sender, \"Found loop in delegation.\");\r\n        }\r\n\r\n        while(delegates.length > 0) {\r\n            address from = delegates[delegates.length - 1];\r\n            delegates.pop();\r\n            voters[from].delegate = to;\r\n        }\r\n\r\n        sender.voted = true;\r\n        sender.delegate = to;\r\n        Voter storage delegated = voters[to];\r\n        if (delegated.voted) {\r\n            require(lock == false, \"Vote is locked.\");\r\n            proposals[delegated.vote].voteCount += sender.weight;\r\n        } else delegated.weight += sender.weight;\r\n    }\r\n\r\n    function vote(uint256 proposal) external {\r\n        require(lock == false, \"Vote is locked.\");\r\n        Voter storage sender = voters[msg.sender];\r\n        require(!sender.voted, \"Already voted or delegated.\");\r\n        require(sender.weight != 0, \"Has no right to vote.\");\r\n\r\n        sender.voted = true;\r\n        sender.vote = proposal;\r\n        proposals[proposal].voteCount += sender.weight;\r\n    }\r\n\r\n    function winningProposal() public view returns (uint256 winningProposal_) {\r\n        require(lock == true, \"Vote is not locked.\");\r\n        uint256 winningVoteCount = 0;\r\n        for (uint256 p = 0; p < proposals.length; p++) {\r\n            if (proposals[p].voteCount > winningVoteCount) {\r\n                winningVoteCount = proposals[p].voteCount;\r\n                winningProposal_ = p;\r\n            }\r\n        }\r\n    }\r\n\r\n    function winnerName() public view returns (string memory winnerName_) {\r\n        require(lock == true, \"Vote is not locked.\");\r\n        winnerName_ = proposals[winningProposal()].name;\r\n    }\r\n}\r\n",
  "sourcePath": "C:\\Coding\\Solidity\\vote_dapp\\contracts\\Vote.sol",
  "compiler": {
    "name": "solc",
    "version": "0.8.13+commit.abaa5c0e.Emscripten.clang"
  },
  "schemaVersion": "3.4.7",
  "updatedAt": "2022-06-11T05:09:55.306Z",
  "networkType": "ethereum",
  "devdoc": {
    "kind": "dev",
    "methods": {},
    "version": 1
  },
  "userdoc": {
    "kind": "user",
    "methods": {},
    "version": 1
  }
}